{
  "contractName": "Election",
  "abi": [
    {
      "inputs": [],
      "stateMutability": "nonpayable",
      "type": "constructor"
    },
    {
      "anonymous": false,
      "inputs": [
        {
          "indexed": true,
          "internalType": "uint256",
          "name": "_candidateId",
          "type": "uint256"
        }
      ],
      "name": "Voted",
      "type": "event"
    },
    {
      "inputs": [],
      "name": "candidatesCount",
      "outputs": [
        {
          "internalType": "uint256",
          "name": "",
          "type": "uint256"
        }
      ],
      "stateMutability": "view",
      "type": "function"
    },
    {
      "inputs": [],
      "name": "electionState",
      "outputs": [
        {
          "internalType": "enum Election.State",
          "name": "",
          "type": "uint8"
        }
      ],
      "stateMutability": "view",
      "type": "function"
    },
    {
      "inputs": [],
      "name": "owner",
      "outputs": [
        {
          "internalType": "address",
          "name": "",
          "type": "address"
        }
      ],
      "stateMutability": "view",
      "type": "function"
    },
    {
      "inputs": [],
      "name": "votersCount",
      "outputs": [
        {
          "internalType": "uint256",
          "name": "",
          "type": "uint256"
        }
      ],
      "stateMutability": "view",
      "type": "function"
    },
    {
      "inputs": [],
      "name": "startElection",
      "outputs": [],
      "stateMutability": "nonpayable",
      "type": "function"
    },
    {
      "inputs": [],
      "name": "endElection",
      "outputs": [],
      "stateMutability": "nonpayable",
      "type": "function"
    },
    {
      "inputs": [
        {
          "internalType": "string",
          "name": "_name",
          "type": "string"
        },
        {
          "internalType": "string",
          "name": "_email",
          "type": "string"
        }
      ],
      "name": "addCandidate",
      "outputs": [],
      "stateMutability": "nonpayable",
      "type": "function"
    },
    {
      "inputs": [
        {
          "internalType": "string",
          "name": "_name",
          "type": "string"
        },
        {
          "internalType": "string",
          "name": "_email",
          "type": "string"
        },
        {
          "internalType": "address",
          "name": "_voter",
          "type": "address"
        }
      ],
      "name": "addVoter",
      "outputs": [],
      "stateMutability": "nonpayable",
      "type": "function"
    },
    {
      "inputs": [
        {
          "internalType": "address",
          "name": "_current",
          "type": "address"
        }
      ],
      "name": "getRole",
      "outputs": [
        {
          "internalType": "uint256",
          "name": "",
          "type": "uint256"
        }
      ],
      "stateMutability": "view",
      "type": "function"
    },
    {
      "inputs": [
        {
          "internalType": "uint256",
          "name": "_candidateId",
          "type": "uint256"
        }
      ],
      "name": "vote",
      "outputs": [],
      "stateMutability": "nonpayable",
      "type": "function"
    },
    {
      "inputs": [
        {
          "internalType": "uint256",
          "name": "_candidateId",
          "type": "uint256"
        }
      ],
      "name": "getCandidateDetails",
      "outputs": [
        {
          "internalType": "string",
          "name": "",
          "type": "string"
        },
        {
          "internalType": "string",
          "name": "",
          "type": "string"
        },
        {
          "internalType": "uint256",
          "name": "",
          "type": "uint256"
        }
      ],
      "stateMutability": "view",
      "type": "function"
    },
    {
      "inputs": [
        {
          "internalType": "uint256",
          "name": "_voterId",
          "type": "uint256"
        }
      ],
      "name": "getVoterDetails",
      "outputs": [
        {
          "internalType": "string",
          "name": "",
          "type": "string"
        },
        {
          "internalType": "string",
          "name": "",
          "type": "string"
        },
        {
          "internalType": "address",
          "name": "",
          "type": "address"
        }
      ],
      "stateMutability": "view",
      "type": "function"
    }
  ],
  "bytecode": "0x60806040526000600655600060075534801561001a57600080fd5b50336000806101000a81548173ffffffffffffffffffffffffffffffffffffffff021916908373ffffffffffffffffffffffffffffffffffffffff16021790555060008060146101000a81548160ff021916908360028111156100805761007f61008a565b5b02179055506100b9565b7f4e487b7100000000000000000000000000000000000000000000000000000000600052602160045260246000fd5b611ba9806100c86000396000f3fe608060405234801561001057600080fd5b50600436106100b45760003560e01c806359f784681161007157806359f784681461018f57806362d73eb814610199578063652e10f9146101a35780637b8fe166146101bf5780638da5cb5b146101f157806398c079381461020f576100b4565b80630121b93f146100b95780632280043d146100d557806326541b56146100f357806327f9fd501461010f5780632d35a8a214610141578063442767331461015f575b600080fd5b6100d360048036038101906100ce9190611145565b61022d565b005b6100dd6104b4565b6040516100ea91906111e9565b60405180910390f35b61010d6004803603810190610108919061134a565b6104c7565b005b61012960048036038101906101249190611145565b610671565b60405161013893929190611459565b60405180910390f35b610149610822565b604051610156919061149e565b60405180910390f35b61017960048036038101906101749190611517565b610828565b604051610186919061149e565b60405180910390f35b6101976108eb565b005b6101a16109b0565b005b6101bd60048036038101906101b89190611544565b610a75565b005b6101d960048036038101906101d49190611145565b610e5d565b6040516101e8939291906115de565b60405180910390f35b6101f961102e565b6040516102069190611623565b60405180910390f35b610217611052565b604051610224919061149e565b60405180910390f35b6001600281111561024157610240611172565b5b600060149054906101000a900460ff16600281111561026357610262611172565b5b146102a3576040517f08c379a000000000000000000000000000000000000000000000000000000000815260040161029a9061168a565b60405180910390fd5b600560003373ffffffffffffffffffffffffffffffffffffffff1673ffffffffffffffffffffffffffffffffffffffff16815260200190815260200160002060009054906101000a900460ff1661032f576040517f08c379a0000000000000000000000000000000000000000000000000000000008152600401610326906116f6565b60405180910390fd5b600360003373ffffffffffffffffffffffffffffffffffffffff1673ffffffffffffffffffffffffffffffffffffffff16815260200190815260200160002060009054906101000a900460ff16156103bc576040517f08c379a00000000000000000000000000000000000000000000000000000000081526004016103b390611762565b60405180910390fd5b6006548110610400576040517f08c379a00000000000000000000000000000000000000000000000000000000081526004016103f7906117ce565b60405180910390fd5b6001600082815260200190815260200160002060030160008154809291906104279061181d565b91905055506001600360003373ffffffffffffffffffffffffffffffffffffffff1673ffffffffffffffffffffffffffffffffffffffff16815260200190815260200160002060006101000a81548160ff021916908315150217905550807f7f511e347bf51eed3be100b3194247d5207f05f3b33de7d31e3e8ee73199a04960405160405180910390a250565b600060149054906101000a900460ff1681565b3373ffffffffffffffffffffffffffffffffffffffff1660008054906101000a900473ffffffffffffffffffffffffffffffffffffffff1673ffffffffffffffffffffffffffffffffffffffff1614610555576040517f08c379a000000000000000000000000000000000000000000000000000000000815260040161054c906118b1565b60405180910390fd5b6000600281111561056957610568611172565b5b600060149054906101000a900460ff16600281111561058b5761058a611172565b5b146105cb576040517f08c379a00000000000000000000000000000000000000000000000000000000081526004016105c29061191d565b60405180910390fd5b60405180608001604052806006548152602001838152602001828152602001600081525060016000600654815260200190815260200160002060008201518160000155602082015181600101908051906020019061062a929190611058565b506040820151816002019080519060200190610647929190611058565b5060608201518160030155905050600660008154809291906106689061181d565b91905055505050565b606080600060065484106106ba576040517f08c379a00000000000000000000000000000000000000000000000000000000081526004016106b1906117ce565b60405180910390fd5b600160008581526020019081526020016000206001016001600086815260200190815260200160002060020160016000878152602001908152602001600020600301548280546107099061196c565b80601f01602080910402602001604051908101604052809291908181526020018280546107359061196c565b80156107825780601f1061075757610100808354040283529160200191610782565b820191906000526020600020905b81548152906001019060200180831161076557829003601f168201915b505050505092508180546107959061196c565b80601f01602080910402602001604051908101604052809291908181526020018280546107c19061196c565b801561080e5780601f106107e35761010080835404028352916020019161080e565b820191906000526020600020905b8154815290600101906020018083116107f157829003601f168201915b505050505091509250925092509193909250565b60065481565b60008173ffffffffffffffffffffffffffffffffffffffff1660008054906101000a900473ffffffffffffffffffffffffffffffffffffffff1673ffffffffffffffffffffffffffffffffffffffff160361088657600190506108e6565b600560008373ffffffffffffffffffffffffffffffffffffffff1673ffffffffffffffffffffffffffffffffffffffff16815260200190815260200160002060009054906101000a900460ff16156108e157600290506108e6565b600390505b919050565b60008054906101000a900473ffffffffffffffffffffffffffffffffffffffff1673ffffffffffffffffffffffffffffffffffffffff163373ffffffffffffffffffffffffffffffffffffffff161461094357600080fd5b6001600281111561095757610956611172565b5b600060149054906101000a900460ff16600281111561097957610978611172565b5b1461098357600080fd5b6002600060146101000a81548160ff021916908360028111156109a9576109a8611172565b5b0217905550565b60008054906101000a900473ffffffffffffffffffffffffffffffffffffffff1673ffffffffffffffffffffffffffffffffffffffff163373ffffffffffffffffffffffffffffffffffffffff1614610a0857600080fd5b60006002811115610a1c57610a1b611172565b5b600060149054906101000a900460ff166002811115610a3e57610a3d611172565b5b14610a4857600080fd5b6001600060146101000a81548160ff02191690836002811115610a6e57610a6d611172565b5b0217905550565b3373ffffffffffffffffffffffffffffffffffffffff1660008054906101000a900473ffffffffffffffffffffffffffffffffffffffff1673ffffffffffffffffffffffffffffffffffffffff1614610b03576040517f08c379a0000000000000000000000000000000000000000000000000000000008152600401610afa906119e9565b60405180910390fd5b600560008273ffffffffffffffffffffffffffffffffffffffff1673ffffffffffffffffffffffffffffffffffffffff16815260200190815260200160002060009054906101000a900460ff1615610b90576040517f08c379a0000000000000000000000000000000000000000000000000000000008152600401610b8790611a55565b60405180910390fd5b60006002811115610ba457610ba3611172565b5b600060149054906101000a900460ff166002811115610bc657610bc5611172565b5b14610c06576040517f08c379a0000000000000000000000000000000000000000000000000000000008152600401610bfd90611ae7565b60405180910390fd5b604051806080016040528060075481526020018481526020018381526020018273ffffffffffffffffffffffffffffffffffffffff16815250600460008373ffffffffffffffffffffffffffffffffffffffff1673ffffffffffffffffffffffffffffffffffffffff168152602001908152602001600020600082015181600001556020820151816001019080519060200190610ca4929190611058565b506040820151816002019080519060200190610cc1929190611058565b5060608201518160030160006101000a81548173ffffffffffffffffffffffffffffffffffffffff021916908373ffffffffffffffffffffffffffffffffffffffff160217905550905050604051806080016040528060075481526020018481526020018381526020018273ffffffffffffffffffffffffffffffffffffffff16815250600260006007548152602001908152602001600020600082015181600001556020820151816001019080519060200190610d80929190611058565b506040820151816002019080519060200190610d9d929190611058565b5060608201518160030160006101000a81548173ffffffffffffffffffffffffffffffffffffffff021916908373ffffffffffffffffffffffffffffffffffffffff1602179055509050506001600560008373ffffffffffffffffffffffffffffffffffffffff1673ffffffffffffffffffffffffffffffffffffffff16815260200190815260200160002060006101000a81548160ff02191690831515021790555060076000815480929190610e539061181d565b9190505550505050565b60608060006007548410610ea6576040517f08c379a0000000000000000000000000000000000000000000000000000000008152600401610e9d90611b53565b60405180910390fd5b60026000858152602001908152602001600020600101600260008681526020019081526020016000206002016002600087815260200190815260200160002060030160009054906101000a900473ffffffffffffffffffffffffffffffffffffffff16828054610f159061196c565b80601f0160208091040260200160405190810160405280929190818152602001828054610f419061196c565b8015610f8e5780601f10610f6357610100808354040283529160200191610f8e565b820191906000526020600020905b815481529060010190602001808311610f7157829003601f168201915b50505050509250818054610fa19061196c565b80601f0160208091040260200160405190810160405280929190818152602001828054610fcd9061196c565b801561101a5780601f10610fef5761010080835404028352916020019161101a565b820191906000526020600020905b815481529060010190602001808311610ffd57829003601f168201915b505050505091509250925092509193909250565b60008054906101000a900473ffffffffffffffffffffffffffffffffffffffff1681565b60075481565b8280546110649061196c565b90600052602060002090601f01602090048101928261108657600085556110cd565b82601f1061109f57805160ff19168380011785556110cd565b828001600101855582156110cd579182015b828111156110cc5782518255916020019190600101906110b1565b5b5090506110da91906110de565b5090565b5b808211156110f75760008160009055506001016110df565b5090565b6000604051905090565b600080fd5b600080fd5b6000819050919050565b6111228161110f565b811461112d57600080fd5b50565b60008135905061113f81611119565b92915050565b60006020828403121561115b5761115a611105565b5b600061116984828501611130565b91505092915050565b7f4e487b7100000000000000000000000000000000000000000000000000000000600052602160045260246000fd5b600381106111b2576111b1611172565b5b50565b60008190506111c3826111a1565b919050565b60006111d3826111b5565b9050919050565b6111e3816111c8565b82525050565b60006020820190506111fe60008301846111da565b92915050565b600080fd5b600080fd5b6000601f19601f8301169050919050565b7f4e487b7100000000000000000000000000000000000000000000000000000000600052604160045260246000fd5b6112578261120e565b810181811067ffffffffffffffff821117156112765761127561121f565b5b80604052505050565b60006112896110fb565b9050611295828261124e565b919050565b600067ffffffffffffffff8211156112b5576112b461121f565b5b6112be8261120e565b9050602081019050919050565b82818337600083830152505050565b60006112ed6112e88461129a565b61127f565b90508281526020810184848401111561130957611308611209565b5b6113148482856112cb565b509392505050565b600082601f83011261133157611330611204565b5b81356113418482602086016112da565b91505092915050565b6000806040838503121561136157611360611105565b5b600083013567ffffffffffffffff81111561137f5761137e61110a565b5b61138b8582860161131c565b925050602083013567ffffffffffffffff8111156113ac576113ab61110a565b5b6113b88582860161131c565b9150509250929050565b600081519050919050565b600082825260208201905092915050565b60005b838110156113fc5780820151818401526020810190506113e1565b8381111561140b576000848401525b50505050565b600061141c826113c2565b61142681856113cd565b93506114368185602086016113de565b61143f8161120e565b840191505092915050565b6114538161110f565b82525050565b600060608201905081810360008301526114738186611411565b905081810360208301526114878185611411565b9050611496604083018461144a565b949350505050565b60006020820190506114b3600083018461144a565b92915050565b600073ffffffffffffffffffffffffffffffffffffffff82169050919050565b60006114e4826114b9565b9050919050565b6114f4816114d9565b81146114ff57600080fd5b50565b600081359050611511816114eb565b92915050565b60006020828403121561152d5761152c611105565b5b600061153b84828501611502565b91505092915050565b60008060006060848603121561155d5761155c611105565b5b600084013567ffffffffffffffff81111561157b5761157a61110a565b5b6115878682870161131c565b935050602084013567ffffffffffffffff8111156115a8576115a761110a565b5b6115b48682870161131c565b92505060406115c586828701611502565b9150509250925092565b6115d8816114d9565b82525050565b600060608201905081810360008301526115f88186611411565b9050818103602083015261160c8185611411565b905061161b60408301846115cf565b949350505050565b600060208201905061163860008301846115cf565b92915050565b7f456c656374696f6e206973206e6f7420696e2070726f67726573730000000000600082015250565b6000611674601b836113cd565b915061167f8261163e565b602082019050919050565b600060208201905081810360008301526116a381611667565b9050919050565b7f4e6f6e20617574686f726973656420757365722063616e6e6f7420766f746500600082015250565b60006116e0601f836113cd565b91506116eb826116aa565b602082019050919050565b6000602082019050818103600083015261170f816116d3565b9050919050565b7f596f75206861766520616c726561647920766f74656400000000000000000000600082015250565b600061174c6016836113cd565b915061175782611716565b602082019050919050565b6000602082019050818103600083015261177b8161173f565b9050919050565b7f496e76616c69642063616e646964617465204944000000000000000000000000600082015250565b60006117b86014836113cd565b91506117c382611782565b602082019050919050565b600060208201905081810360008301526117e7816117ab565b9050919050565b7f4e487b7100000000000000000000000000000000000000000000000000000000600052601160045260246000fd5b60006118288261110f565b91507fffffffffffffffffffffffffffffffffffffffffffffffffffffffffffffffff820361185a576118596117ee565b5b600182019050919050565b7f4f6e6c79206f776e65722063616e206164642063616e64696461746573000000600082015250565b600061189b601d836113cd565b91506118a682611865565b602082019050919050565b600060208201905081810360008301526118ca8161188e565b9050919050565b7f456c656374696f6e2068617320616c7265616479207374617274656400000000600082015250565b6000611907601c836113cd565b9150611912826118d1565b602082019050919050565b60006020820190508181036000830152611936816118fa565b9050919050565b7f4e487b7100000000000000000000000000000000000000000000000000000000600052602260045260246000fd5b6000600282049050600182168061198457607f821691505b6020821081036119975761199661193d565b5b50919050565b7f4f6e6c79206f776e65722063616e2061646420766f7465720000000000000000600082015250565b60006119d36018836113cd565b91506119de8261199d565b602082019050919050565b60006020820190508181036000830152611a02816119c6565b9050919050565b7f566f74657220616c726561647920616464656400000000000000000000000000600082015250565b6000611a3f6013836113cd565b9150611a4a82611a09565b602082019050919050565b60006020820190508181036000830152611a6e81611a32565b9050919050565b7f566f7465722063616e277420626520616464656420616674657220656c65637460008201527f696f6e2073746172746564000000000000000000000000000000000000000000602082015250565b6000611ad1602b836113cd565b9150611adc82611a75565b604082019050919050565b60006020820190508181036000830152611b0081611ac4565b9050919050565b7f496e76616c696420766f74657220494400000000000000000000000000000000600082015250565b6000611b3d6010836113cd565b9150611b4882611b07565b602082019050919050565b60006020820190508181036000830152611b6c81611b30565b905091905056fea2646970667358221220a7116baed427877f038755105fdfed10b4213e8d7a260212e046e2bcdd9258a164736f6c634300080e0033",
  "immutableReferences": {},
  "source": "// SPDX-License-Identifier: MIT\r\npragma solidity >=0.4.0 <0.9.0;\r\n\r\ncontract Election {\r\n    enum State {\r\n        NotStarted,\r\n        InProgress,\r\n        Ended\r\n    }\r\n\r\n    struct Candidate {\r\n        uint256 id;\r\n        string name;\r\n        string email; // New field for email\r\n        uint256 voteCount;\r\n    }\r\n\r\n    address public owner;\r\n    State public electionState;\r\n\r\n    struct Voter {\r\n        uint256 id;\r\n        string name;\r\n        string email;\r\n        address addr; // Include address field\r\n    }\r\n\r\n    mapping(uint256 => Candidate) candidates;\r\n    mapping(uint256 => Voter) voter;\r\n    mapping(address => bool) voted;\r\n    mapping(address => Voter) voters; // Modify to store Voter struct\r\n    mapping(address => bool) isVoter;\r\n\r\n    uint256 public candidatesCount = 0;\r\n    uint256 public votersCount = 0;\r\n\r\n    constructor() {\r\n        owner = msg.sender;\r\n        electionState = State.NotStarted;\r\n    }\r\n\r\n    event Voted(uint256 indexed _candidateId);\r\n\r\n    function startElection() public {\r\n        require(msg.sender == owner);\r\n        require(electionState == State.NotStarted);\r\n        electionState = State.InProgress;\r\n    }\r\n\r\n    function endElection() public {\r\n        require(msg.sender == owner);\r\n        require(electionState == State.InProgress);\r\n        electionState = State.Ended;\r\n    }\r\n\r\n    function addCandidate(string memory _name, string memory _email) public {\r\n        require(owner == msg.sender, \"Only owner can add candidates\");\r\n        require(electionState == State.NotStarted, \"Election has already started\");\r\n\r\n        candidates[candidatesCount] = Candidate(candidatesCount, _name, _email, 0);\r\n        candidatesCount++;\r\n    }\r\n\r\n    function addVoter(string memory _name, string memory _email, address _voter) public {\r\n        require(owner == msg.sender, \"Only owner can add voter\");\r\n        require(!isVoter[_voter], \"Voter already added\");\r\n        require(electionState == State.NotStarted, \"Voter can't be added after election started\");\r\n\r\n        voters[_voter] = Voter(votersCount, _name, _email, _voter);\r\n        voter[votersCount]= Voter(votersCount, _name, _email, _voter);\r\n        isVoter[_voter] = true;\r\n        votersCount++;\r\n    }\r\n\r\n    function getRole(address _current) public view returns (uint256) {\r\n        if (owner == _current) {\r\n            return 1;\r\n        } else if (isVoter[_current]) {\r\n            return 2;\r\n        } else {\r\n            return 3;\r\n        }\r\n    }\r\n\r\n    function vote(uint256 _candidateId) public {\r\n        require(electionState == State.InProgress, \"Election is not in progress\");\r\n        require(isVoter[msg.sender], \"Non authorised user cannot vote\");\r\n        require(!voted[msg.sender], \"You have already voted\");\r\n        require(_candidateId < candidatesCount, \"Invalid candidate ID\");\r\n\r\n        candidates[_candidateId].voteCount++;\r\n        voted[msg.sender] = true;\r\n\r\n        emit Voted(_candidateId);\r\n    }\r\n\r\n    function getCandidateDetails(uint256 _candidateId) public view returns (string memory, string memory, uint256) {\r\n        require(_candidateId < candidatesCount, \"Invalid candidate ID\");\r\n        return (candidates[_candidateId].name, candidates[_candidateId].email, candidates[_candidateId].voteCount);\r\n    }\r\n\r\n     function getVoterDetails(uint256 _voterId) public view returns (string memory, string memory, address) {\r\n        require(_voterId < votersCount, \"Invalid voter ID\");\r\n        return (voter[_voterId].name, voter[_voterId].email, voter[_voterId].addr);\r\n    }\r\n    \r\n}\r\n",
  "sourcePath": "C:\\Users\\kulde\\Downloads\\blockchainvote\\voting-dapp\\contracts\\Voting.sol",
  "compiler": {
    "name": "solc",
    "version": "0.8.14+commit.80d49f37.Emscripten.clang"
  },
  "schemaVersion": "3.4.16",
  "updatedAt": "2024-04-18T08:23:39.834Z",
  "devdoc": {
    "kind": "dev",
    "methods": {},
    "version": 1
  },
  "userdoc": {
    "kind": "user",
    "methods": {},
    "version": 1
  }
}